:0300000002134A9E
:0C134A00787FE4F6D8FD7581820209F975
:03137D00021092C9
:0A0E1E008B588A59895A8C5B8D5C51
:100E28007FF012000EE55C2404FF12000EE55C243E
:100E38000490024AF0E4900248F0A3F0900248E0DF
:100E4800FEA3E0FFC3955CEE955B5041AB58AA59F1
:100E5800A95A8F828E8312039CFF12000E90024AB9
:100E6800E0FFAB58AA59A95A900248E0FCA3E0F564
:100E7800828C8312039CFEEF6E90024AF090024926
:100E8800E004F070B7900248E004F080AF90024AA6
:0A0E9800E0FF12000E7FFE02000EC4
:0C0F1C007B017A027934900248A3E0FDCA
:080F28008B588A59895A8D5B30
:100F3000E4900256F07D01FCE55B24FDFFE434FF04
:100F4000FED3ED9FEE6480F8EC6480985020900210
:100F500056E0FFAB58AA59A95A8D828C8312039C84
:100F6000FEEF6E900256F00DBD00010C80CA7E00AF
:100F700074FE255BF582EE34FFF583AB58AA59A9C0
:100F80005A12039CFF900256E0B507037F01227FAF
:010F90000060
:010F9100223D
:01000A0022D3
:1004B600E4900252F0A3F0A3F0A3F0C20B90022E38
:1004C600E0FEA3E0FFF92434F582E43400F583E08E
:1004D60064F0603FC3900229E094FA900228E09409
:1004E60000503090022FE004F0700690022EE004D7
:1004F600F0900229E004F07006900228E004F090E3
:10050600022EE07004A3E064FA70B290022EF0A30B
:10051600F080AA900228E0FCA3E0FDC374FA9DFDDA
:10052600E49CFCD3ED9404EC9400500302083F9045
:10053600022CE0FCA3E0FDEF9DEE9C400302067258
:1005460090022EE0FAA3E0FBC390022DE09BFE9002
:10055600022CE09A90024CF0A3CEF090024AEAF008
:10056600A3EBF0743529F582E43400F583E0FF90BF
:100576000248E4F0A3EFF0900248E0FEA3E0FF900B
:100586000252EEF0A3EFF090024CE0FCA3E0FD90E7
:100596000254ECF0A3EDF0D3EF9414EE940050085F
:1005A600900248A3E04E700690022E020832D3EF66
:1005B6009DEE9C400302083F900248A3E0FFA3A3E0
:1005C600E02F2433F582E43400F583E064FE600313
:1005D60002066C90024EF0A3F0900248E0FEA3E003
:1005E600FF90024EE0FCA3E0FDC39FEC9E502FAFB0
:1005F6000590024AA3E02F2434F582E43400F58303
:10060600E0FE74342FF582E43402F583EEF09002B6
:100616004FE004F070C390024EE004F080BB120F6E
:100626001CEF900248601FE0FEA3E0FF90022FE05F
:100636002FF090022EE03EF0900229E02FF090027B
:1006460028E03E0207F7E0FEA3E0FF90022FE02F2E
:10065600F090022EE03EF0900229E02FF090022862
:10066600E03EF002083F90024A02083290022DE076
:1006760024FAFF90022CE03400FE90022EE0FCA348
:10068600E0FDC3EF9DFFEE9C90024CF0A3EFF090CF
:10069600024AECF0A3EDF02401FFE43CFE90025088
:1006A600F0A3EFF07C007DFA1203DB900250ECF031
:1006B600A3EDF02434F582E43400F583E0FF9002E4
:1006C60048E4F0A3EFF0900248E0FEA3E0FF9002BA
:1006D60052EEF0A3EFF090024CE0FCA3E0FD900296
:1006E60054ECF0A3EDF0D3EF9414EE940050089080
:1006F6000248A3E04E700690024A020832D3EF9DEC
:10070600EE9C400302083F900248E0FEA3E0FF9003
:10071600024BE02FFF90024AE03ECF24FFCF34FF8A
:10072600FE900250F0A3EFF07C007DFA1203DB90FE
:100736000250ECF0A3EDF02434F582E43400F583A6
:10074600E064FE600302082F90024EF0A3F09002D0
:1007560048E0FEA3E0FFC390024FE09F90024EE008
:100766009E5055E0FAA3E0FB90024BE02BFE900270
:100776004AE03A900250F0A3CEF0900250E0FEA379
:10078600E0FF7C007DFA1203DB900250ECF0A3ED53
:10079600F02434F582E43400F583E0FF74342BF55D
:1007A60082E43402F583EFF090024FE004F0709E8D
:1007B60090024EE004F08096120F1CEF9002486003
:1007C60035E0FAA3E0FB90022FE02BF090022EE03A
:1007D6003AF0E0FEA3E0FF7C007DFA1203DB900214
:1007E6002EECF0A3EDF0900229E02BF0900228E029
:1007F6003AF0D20B8043E0FAA3E0FB90022FE02B05
:10080600F090022EE03AF0E0FEA3E0FF7C007DFAD5
:100816001203DB90022EECF0A3EDF0900229E02B00
:10082600F0900228E03AF0801090024AA3E02434C7
:10083600F582E43400F583E4F0900228E0FEA3E0BC
:10084600FFC374FA9FFFE49EFEC3EF9405EE940087
:100856004015900254E0FEA3E0FFD3900253E09FC0
:10086600900252E09E4004C20A8002D20A300B0374
:0508760012000AA20AB5
:01087B00225A
:04119F008E598F5A7C
:1011A300E4F55BF55CC3E55C955AE55B955950291D
:1011B300E4FFFE0FBF00010EEF643C4E70F5E4FE4A
:1011C300FF0FBF00010EEF64FC4E70F512135605BE
:0911D3005CE55C70D0055B80CC8A
:0111DC0022F0
:10123B00538EFD538EFB538EF7438E1075A0FF78A4
:10124B000C76FFC204C205C2061212E812137D12FD
:0C125B001327120B257F147E0002119F48
:1009F90012123B121356786F76FF7B007A00796FDB
:100A09007D017C00120E1E12087C780CE665A06040
:100A1900497F027E0012119FAFA0780FEFF6780C84
:100A2900E6FE6F6035780FE6FF6E780DF630E00769
:100A3900E65F20E002D204780DE630E108780F562F
:100A490020E102D205780DE6FF30E208780F562042
:100A5900E202D206780FE6780CF6300405C20412D9
:100A69001160300505C2051211DD300605C20612F6
:100A7900120CC3900258E094FA900257E094004097
:100A890007E4F0A3F0121356200903020B17900094
:100A990032E0FEA3E0FFC3900229E09F900228E024
:100AA9009E406BE47818F67818E6FFFDD390003382
:100AB900E09D900032E09400404B74002FF582E4F1
:100AC9003400F583E0FF90022CE475F00112043044
:100AD900FC743425F0F58274003CF583EFF0900244
:100AE9002CE07004A3E064FA700690022CF0A3F0E5
:100AF900900229E024FFF0900228E034FFF0D208A8
:100B090078180680A2E4900032F0A3F0C209200808
:0C0B190003020A101204B69208020A102F
:10131300C2AFC28CC2A95389FE438902758CC4D261
:041323008CD2AF2297
:1012E800C2AFC28EC2AB4389105389DF758DFAD263
:0612F800ABD28ED2AF2242
:03000B0002001ED2
:04001E00758CFA32B1
:03001B0002126767
:10126700C0E0C0F0C083C082C0D075D010758DFAC1
:10127700900258E004F07006900257E004F0121153
:0C12870021D0D0D082D083D0F0D0E03253
:10133A00C2AFD207759AFB438780759B1ED2AF2234
:10109200E4900032F0A3F0C209900228F0A374FA9F
:1010A200F0E490022CF0A3F0A3F0A3F090022AF057
:1010B200A374FAF0E4900230F0A3F0900232F0A3AD
:1010C200F0C2087F807E2512133AC2AFC29FD29E21
:0910D200C29DD29CD2ACD2AF2227
:100FED0090022AE07002A3E070037FFF22C2AF904F
:100FFD000230E475F001120430FC742E25F0F582F8
:10100D0074013CF583EFF0900230E0FEA3E0FF7C2D
:10101D00007DFA1203DB900230ECF0A3EDF09002AC
:10102D002BE024FFF090022AE034FFF0300704C2D9
:08103D0007D299D2AF7F002217
:0D000E00AB07AF03120FEDEF70F8AF032248
:03002300020CF7D5
:0D0CF700C0E0C0F0C083C082C0D075D01036
:100D040030982AC298AF99C3900033E0943290008F
:100D140032E094005017E475F001120430FC7400C2
:100D240025F0F58274003CF583EFF0D20930994E3A
:100D3400C299C390022BE094FA90022AE0940050E6
:100D44003B900232E475F001120430FE742E25F05B
:100D5400F58274013EF583E0F599900232E0700467
:100D6400A3E064FA7006900232F0A3F090022BE044
:0E0D740004F0700690022AE004F08002D2071C
:0B0D8200D0D0D082D083D0F0D0E0327F
:1013270075A70775A61E75A6E1E4900257F0A3F00E
:03133700C2B3221C
:0913560075A61E75A6E1B2B322D2
:10129300C2DE12131353D9FE53D9FD43D90453D9D4
:1012A300BF53D97F75DA4275DB4275DC4275DD4287
:0C12B300E4F5FAF5FBF5FCF5FDD2DE22B7
:07000300C374FF9FF5FA2210
:07136800C374FF9FF5FB2297
:07136F00C374FF9FF5FC228F
:07137600C374FF9FF5FD2287
:1012FE00EB1D8BBB1DEB1D3CEB1DEB4DF7DB0AF71E
:05130E006D0AFFFFFF66
:100B2500E4F558E55875F003A424FEF582E4341283
:100B3500F583E493FFE55875F003A42428F8A60788
:100B4500E55875F003A424FFF582E43412F583E437
:100B550093FFE55875F003A42429F8A607E5587511
:100B6500F003A42400F582E43413F583E493FFE550
:100B75005875F003A4242AF8A607E55875F003A4D0
:100B8500FF2428F9E4FAFBC00174292FF9E4F5657F
:100B9500F5668967742A2FF9E4F568F569896AD0DD
:100BA50001120C380558E558C394075003020B2869
:100BB5009012FEE493FFF553A3E493FEF54FA3E4EF
:100BC50093F5498F548E50F54A121293E4F548F582
:100BD5004BF54CC200C203F556F557C201C202756A
:100BE5005532755201FFFE1210877FFF12135F7F8A
:100BF500FA7E0012119FE4FF12135FE4FBFD7FFFF5
:100C05001210E17FFA7E0012119FE4FB7DFFFF12B7
:100C150010E17FFA7E0012119F7BFFE4FDFF1210A9
:100C2500E17FFA7E0012119FE4FBFDFF1210E11235
:020C350011604C
:010C3700229A
:09135F00C374FF9FFF12137622F4
:0610DB00AB49AD4FAF531D
:1010E1008F598D5A8B5B755F0075600075615A75FC
:1010F100620075630075645B8555657B007A0079D4
:1011010059120D8DC374FF955BFF120003C374FF69
:101111009559FF121368C374FF955AFF12136F227A
:10087C00121045E552640260030209F820010302DC
:10088C000933855451855043854A42120EA2E4F532
:10089C004DF54EAC511202CEC004C005C006C007C7
:1008AC00AC54E41202CED003D002D001D00012001E
:1008BC0029E4FBFA794878431202278F478E468D3C
:1008CC00458C44AC43E41202CEC004C005C006C043
:1008DC0007AC50E41202CED003D002D001D00012EB
:1008EC000029E4FBFA794878431202278F418E40A5
:1008FC008D3F8C3EAC42E41202CEC004C005C00653
:10090C00C007AC4AE41202CED003D002D001D00012
:10091C00120029E4FBFA794878431202278F278EBC
:10092C00268D258C24C2012002030209F8C3E54E52
:10093C0094C8E54D940040030209E3054EE54E7062
:10094C0002054DAC4DFDE41202C9AB47AA46A945C0
:10095C00A84412011EC004C005C006C007AC51E477
:10096C001202CED003D002D001D00012002D1203FF
:10097C00028F53AC4DAD4EE41202C9AB41AA40A953
:10098C003FA83E12011EC004C005C006C007AC4300
:10099C00E41202CED003D002D001D00012002D12EE
:1009AC0003028F4FAC4DAD4EE41202C9AB27AA2601
:1009BC00A925A82412011EC004C005C006C007AC9E
:1009CC0042E41202CED003D002D001D00012002D8E
:1009DC001203028F498010C203E4F54BF54C855489
:0D09EC005385504F854A491210DBC202228C
:10112100E55264027038054CE54C7002054B200312
:1011310012C39488E54B94134009E4F54BF54CD266
:1011410001D2033003180557E55770020556D394B1
:0F11510014E55694004007E4F556F557D20222F4
:060C38008B628A638964EF
:100C3E00120383FFAB65AA66A967120383FEEFC397
:100C4E009E5002AF06AB68AA69A96A120383FEEF33
:100C5E00C39E5002AF06AC07E41202CEA804A9054B
:100C6E00AA06AB07E4FFFE7D7F7C431202278F6E40
:100C7E008E6D8D6C8C6BAB62AA63A964120383FCC0
:100C8E00E41202CEAB6EAA6DA96CA86B12011E12F5
:100C9E000302AB62AA63A964EF1203C9AB65AA662D
:100CAE00A967120383FCE41202CEAB6EAA6DA96C87
:100CBE00A86B12011E120302AB65AA66A967EF129A
:100CCE0003C9AB68AA69A96A120383FCE41202CEB7
:100CDE00AB6EAA6DA96CA86B12011E120302AB6853
:080CEE00AA69A96AEF1203C90B
:010CF60022DB
:060D8D008B5C8A5D895EAB
:100D9300AC65E41202CEE4FBFA79C878421202276A
:100DA3008F698E688D678C66AB5CAA5DA95E120342
:100DB30083FCE41202CEAB69AA68A967A866120194
:100DC3001E120302AB5CAA5DA95EEF1203C9AB5FFF
:100DD300AA60A961120383FCE41202CEAB69AA687C
:100DE300A967A86612011E120302AB5FAA60A9617C
:100DF300EF1203C9AB62AA63A964120383FCE41272
:100E030002CEAB69AA68A967A86612011E12030283
:0A0E1300AB62AA63A964EF1203C9E1
:010E1D0022B2
:1011DD00E555D3945A5012E5559432500474058058
:1011ED0002740A2555F5558003755564E552B40111
:0F11FD0005AF5502135FE552B402031210DB2257
:10120C00E555C394074012E555943C400474F680B0
:10121C000274FB2555F5558003755502E552B40152
:0F122C0005AF5502135FE552B402031210DB2227
:10116000E552700D755201FBFDFF1210E1AF558085
:101170002AE55264017014755202120EA2E4FF12A5
:10118000135FAB4AAD50AF540210E1E552B4020E0A
:0F119000E4F552FBFDFF1210E1E4FF12135F22A2
:0812BF00EF1203C97F007E015C
:1012C7008E628F63121045AB07AA06EA3395E0F9E1
:1012D700F8AE62AF63E4FCFD120446780F1204A374
:0112E70022E4
:060F92008B628A63896492
:100F9800120383FFFEAB65AA66A967120383FDEE01
:100FA800D39D4002AE05AB68AA69A96A120383FD06
:100FB800EED39D4002AE05AB65AA66A9671203830E
:100FC800FDEFC39D5002AF05AB68AA69A96A120379
:100FD80083FDEFC39D5002AF05C3EF9ED394C84075
:040FE80002D322C34B
:010FEC0022E2
:100EA200F55C755D00755E50F55F75600075614AB1
:050EB200FB7A007954F9
:060EB7008B598A5A895B89
:100EBD00C20A200A591212C3AB59AA5AA95B1212BF
:100ECD00BFAB5CAA5DA95E1212BFAB5FAA60A96140
:100EDD00EF1203C9855C65855D66855E67855F6814
:100EED0085606985616AAB59AA5AA95B120C388570
:100EFD005C65855D66855E67855F68856069856112
:0E0F0D006AAB59AA5AA95B120F92920A80A4ED
:010F1B0022B3
:1000260002036EE86480F8E933E83360110460F097
:10003600ED33EC337009E8FCE9FDEAFEEBFF220440
:1000460060DED3EB9FEA9EE99DE8C2E78CF0C2F73B
:1000560095F0400CE8CCF8E9CDF9EACEFAEBCFFB07
:1000660012033985D0F05804700320D5B3E8047024
:10007600075002B2D502037892D5EC0460F7E4CCBF
:10008600C0E0C398F8603B94186008400DD0E0FBD0
:10009600020350E4FBFAC9FC8028E830E406E4C910
:1000A600FBE4CAFCE830E305E4C9CACBFCE8540724
:1000B6006010F8C3E913F9EA13FAEB13FBEC13FC2F
:1000C600D8F130F52FC3E49CFCEF9BFFEE9AFEEDD2
:1000D60099FDD0E0FBEF4E4D4C701222DB0302037C
:1000E60075EC2CFCEF33FFEE33FEED33FDED30E720
:1000F600EB020350EF2BFFEE3AFEED39FDD0E0FBAD
:1001060050130BBB0003020378ED13FDEE13FEEF55
:0801160013FFEC13FC0203507F
:10011E00EC4D6011E8497017ED33EC3304600DE4DB
:10012E00FCFFFEFD22E933E8330470F802036E1281
:10013E00033958046009E4CC248150062850090282
:10014E000378284003020375C0E0EB4A7044B9807F
:10015E0006D0E0FB020364EF4E701CBD8008EBFF7F
:10016E00EAFEE9FD80EBE98DF0A4FEE5F002020760
:10017E00E9CDF9EAFEEBFFEF89F0A4FCE5F0CE89BC
:10018E00F0A42EFFE435F0CD89F0A42DFEE435F079
:10019E008067EF4E7005BD80D780C3EF8BF0A4ACA7
:1001AE00F0EE8BF0A42CFCE435F0F8EF8AF0A42CE2
:1001BE00E5F038FCE433CB8DF0A42CFCE5F03BF8F5
:1001CE00EE8AF0A42CFCE5F038F8E433CF89F0A4E5
:1001DE002CFCE5F038CF3400CE89F0A42FFFE5F0EB
:1001EE003EFEE433C98DF0A42EFEE5F039CD8AF043
:1001FE00A42FFFE5F03EFEE43DFD33D0E0FB5007BB
:10020E000BBB000F020378EC2CFCEF33FFEE33FE3A
:06021E00ED33FD02035068
:10022400020378EC5D046005E85904700302036E70
:10023400120339580460F6EC4860F2EC7004FDFED9
:10024400FF22C860DB2481C85009C39860025006AD
:100254000203759850CAF582E9294B4A7005AB82AE
:1002640002036475F0007C1A7880C3EF9BEE9AED6C
:1002740099400DC3EF9BFFEE9AFEED99FDE842F025
:10028400DC23ACF0D0E0FFD0E0FED0E0FDAB822078
:10029400E7101BEB60BAEC2CFCEF33FFEE33FEED02
:1002A40033FD020350E803F830E705C0F075F000B1
:1002B400EF2FFFEE33FEED33FD40B830E7C280AAE6
:1002C40075F020800E75F010800575F0087D007EB5
:1002D400007F003392D530D503120495EC334010DF
:1002E400EF33FFEE33FEED33FDEC33FCD5F0ED22BE
:0E02F400E5F0247EA2D513CC92E7CDCEFF22FA
:10030200EDD2E7CD33EC3392D524814006E4FFFEF3
:10031200FDFC22FCE4CFCECDCC24E0501174FF8052
:10032200EDC3CC13CCCD13CDCE13CECF13CF0470EF
:07033200F030D5DE02049556
:10033900E9D2E7C933E833F892D5EDD2E7CD33EC0A
:0703490033FC5002B2D52283
:10035000EC30E7100FBF000C0EBE00080DBD00040E
:100360000BEB6014A2D5EB13FCED92E7FD2274FFBA
:10037000FCFDFEFF22E480F8A2D574FF13FC7D8013
:03038000E480EF27
:10038300BB010689828A83E0225002E722BBFE0278
:09039300E32289828A83E49322AB
:10039C00BB010CE58229F582E5833AF583E0225016
:1003AC0006E92582F8E622BBFE06E92582F8E22260
:0D03BC00E58229F582E5833AF583E493227A
:1003C900BB010689828A83F0225002F722BBFE0113
:0203D900F3220D
:1003DB00BC000BBE0029EF8DF084FFADF022E4CC06
:1003EB00F875F008EF2FFFEE33FEEC33FCEE9DECCF
:1003FB00984005FCEE9DFE0FD5F0E9E4CEFD22ED15
:10040B00F8F5F0EE8420D21CFEADF075F008EF2F5E
:10041B00FFED33FD4007985006D5F0F222C398FD4F
:05042B000FD5F0EA22EC
:10043000A3F8E0C5F025F0F0E5821582700215837F
:06044000E0C838F0E822DC
:10044600E88FF0A4CC8BF0A42CFCE98EF0A42CFC55
:100456008AF0EDA42CFCEA8EF0A4CDA8F08BF0A4D3
:100466002DCC3825F0FDE98FF0A42CCD35F0FCEB32
:100476008EF0A4FEA9F0EB8FF0A4CFC5F02ECD39F7
:0F048600FEE43CFCEAA42DCE35F0FDE43CFC2264
:0E049500C3E49FFFE49EFEE49DFDE49CFC2278
:1004A300E8600FECC313FCED13FDEE13FEEF13FF37
:0304B300D8F1225B
:10104500AC08AD09AE0AAF0B7810EC4D4E4F7004ED
:101055007CA57DA5C3EC13FCED13FDEE13FEEF138C
:10106500FF5010EC64CCFCED644CFDEE644EFEEFDD
:1010750064CEFFD8DF8C088D098E0A8F0BEE547F66
:0D108500FE228E088F0974A5F50AF50B22D6
:00000001FF
